:020000040800F2
:10000000C8050020F1010008FF300008A7260008FD
:10001000FD300008450800081944000800000000F1
:10002000000000000000000000000000B9340008DB
:10003000470800080000000001310008BB34000838
:100040000B0200080B0200080B0200080B0200085C
:100050000B0200080B0200080B0200080B0200084C
:100060000B0200080B0200080B0200080B0200083C
:100070000B0200080B0200080B0200080B0200082C
:100080000B020008000000000B0200080B02000831
:100090000B0200080B0200080B0200080B0200080C
:1000A0000B0200080B0200080B0200080B020008FC
:1000B0000B02000835350008413500080B02000826
:1000C0000B0200080B0200080B0200080B020008DC
:1000D0000B0200080D4400080B0200080B02000888
:1000E0000B0200080B0200080B0200080B020008BC
:1000F0000B0200080B0200080B02000800000000C1
:10010000000000000B020008000000000B020008C5
:100110000B020008000000000B0200080B020008A0
:100120000B0200080B0200080B0200080B0200087B
:100130000B02000800000000000000000B02000895
:100140000B0200080B020008000000000000000085
:10015000000000000000000000000000000000009F
:100160000000000000000000000000000B0200087A
:100170000B0200080000000000000000000000006A
:10018000000000000B02000800000000000000005A
:10019000000000000000000000000000000000005F
:1001A00000000000000000000B0200080B02000825
:1001B0000B0200080B0200080B0200080000000000
:1001C000000000000B02000800000000000000001A
:1001D0000B0200080B020008DFF810D000F020FB33
:1001E00000480047994F0008AFF30080C805002081
:1001F0000648804706480047FEE7FEE7FEE7FEE7C1
:10020000FEE7FEE7FEE7FEE7FEE7FEE7193500083A
:10021000D90100082DE9F05F0546002092469B4673
:1002200088460646814640241BE02846414647460C
:10023000224600F02DF953465A46C01A914110D378
:1002400011461846224600F014F92D1A67EB0108F2
:100250004F4622460120002100F00BF917EB000960
:100260004E41201EA4F10104DFDC484631462A46F7
:100270004346BDE8F09FD2B201E000F8012B491ED1
:10028000FBD270470022F6E710B513460A46044633
:100290001946FFF7F0FF204610BD2DE9FE4F8046BE
:1002A00081EA0300C00F0C46009021F0004123F0CA
:1002B0000045B8EB0200A94105D2404621469046D0
:1002C0001C460B46024623F00040104347D0270D42
:1002D000C7F30A00C3F30A510290401A0190402864
:1002E0006BDAC3F3130040F4801B0098924620B1F0
:1002F0000023D2EB030A63EB0B0B01985946C0F1C4
:100300004002504600F0B5F806460D4650465946A4
:10031000019A00F0CDF810EB08006141002487EA53
:10032000115284EAE7731A4340D0009A62B3019AEB
:10033000012A4FEA075215DC001B61EB02014FF066
:10034000004202EA0752CDE90042001C41F580114B
:1003500032462B4600F004F903B0BDE8F08F40466A
:100360002146F9E7001B61EB0201001C41F58013F7
:1003700000185B412018A2F5001747EB030140EA83
:10038000D570B6196D4111E06D084FEA360645EAA1
:10039000C0754FEA0752001B61EB0201001C41F5DA
:1003A000801149084FEA30000019514132462B466E
:1003B00003B0BDE8F04F00F0C4B80098012240003F
:1003C0000023D0EB020263EBE073009821464FEA72
:1003D000E074B8EB000061EB0401E9E783F000434F
:1003E0005BE781F0004158E700F0004230F0004048
:1003F0000AD0C10D01F56071C0F3160042EA015147
:10040000C20840071143704700200146704701F0C1
:10041000004330B421F0004150EA010206D00A0D39
:10042000A2F56072C1F31301002A02DC30BC002087
:100430007047440F44EAC104C100E01830BC00EB2F
:10044000C25000F047B830B50B46014600202022CC
:10045000012409E021FA02F59D4205D303FA02F5D1
:10046000491B04FA02F52844151EA2F10102F1DC31
:1004700030BD202A04DB203A00FA02F10020704748
:100480009140C2F1200320FA03F3194390407047D2
:10049000202A04DB203A21FA02F00021704721FAD9
:1004A00002F3D040C2F12002914008431946704740
:1004B000202A06DBCB17203A41FA02F043EAE07328
:1004C00006E041FA02F3D040C2F120029140084315
:1004D000194670470029A8BF7047401C490008BF53
:1004E00020F00100704710B4B0FA80FC00FA0CF064
:1004F00050EA010404BF10BC704749B1CCF120049C
:1005000021FA04F411FA0CF118BF01212143084328
:10051000A3EB0C01CB1D4FEA00614FEA102042BF54
:10052000002010BC704700EBC35010440029A4BF4A
:1005300010BC7047401C490008BF20F0010010BCEF
:10054000704710B5141E73F1000408DA401C41F125
:10055000000192185B411A4301D120F0010010BD47
:100560002DE9F04D92469B4611B1B1FA81F202E0BD
:10057000B0FA80F220329046FFF77BFF04460F4628
:1005800040EA0A0041EA0B0153465A46084313D099
:10059000114653EA010019D0C8F140025046FFF756
:1005A00077FF05460E46504659464246FFF761FF23
:1005B000084305D0012004E020463946BDE8F08D0F
:1005C0000020054346EAE0762C4337430A9863054A
:1005D000E40AA0EB08000022FD0A44EA47540A306E
:1005E00002D500200146E9E7010510196941DDE95E
:1005F000084500196941BDE8F04DA2E72DE9FE4F1D
:1006000081EA030404F0004421F0004100944FF01B
:10061000000B23F0004350EA01045ED052EA0304C9
:100620005BD0C3F30A54C1F30A552C44A4F2F3344B
:100630000194A0FB0254C1F3130141F48011C3F3F0
:10064000130343F4801301FB024400FB034E840AAE
:10065000970A44EA815447EA8357A4FB0768029546
:100660008D0A05FB07854FEA932C04FB0C542705E4
:10067000029D4FEA065847EA1637B5EB08056EEBC0
:10068000070C870E920E47EA811742EA8312A7FBF6
:100690000201B6EB0B0164EB00042B0D43EA0C33B3
:1006A0005E1844EB1C50DA465146E7FB0201C5F3E5
:1006B00013044FEA0B3343EA14534FEA0432019C0C
:1006C00043EA0603A4F10C040294009CCDE900B4B3
:1006D000FFF746FF03B0BDE8F08F00200146F9E7C1
:1006E0002DE9F04D81EA030404F0004B21F00045B0
:1006F00014464FF0000A23F0004150EA050220D0D2
:1007000054EA01021DD0C5F30A570246C5F313038C
:10071000C1F31300C1F30A5640F4801543F480136B
:10072000A7EB0608101BD64608F2FD3873EB050050
:1007300002D308F1010801E092185B41B8F1000F03
:1007400003DA00200146BDE8F08D00204FF480114F
:10075000064684460EE0171B73EB050705D3121BF4
:1007600063EB050306434CEA010C49084FEA3000ED
:1007700092185B4150EA0107EDD152EA030012D012
:1007800082EA040083EA0501084305D0101BAB414F
:1007900006D20122002306E000224FF0004302E0CF
:1007A0006FF0010253101AEB06004CEB085110EBEE
:1007B0000A0041EB0B01BDE8F04DFFF7C2BEC1F3EB
:1007C0000A52C1F3130140F2FF3341F480119A42FF
:1007D00002DA00200146704740F233439A42A2F207
:1007E000334202DC5242FFF753BEFFF742BE000025
:1007F00030B5041E71F1000404DB4FF000444042A8
:1008000064EB0101141E73F1000405DB1C464FF07C
:100810000043524263EB0403994208BF904230BD4B
:10082000064C074D06E0E06840F0010394E807003D
:1008300098471034AC42F6D3FFF7D2FC1465000899
:1008400034650008FEE77047002240F6B83306E042
:100850000021491C89B29942FBD3521C92B28242B8
:10086000F6D3704710B5044601F09AFFA02001F0BE
:1008700058FF01F0CBFF204601F053FF01F0C6FF07
:1008800001F08EFFA12001F04CFF01F0BFFF01F04D
:1008900021FF044601F06CFF01F09DFF012000F0F4
:1008A0008FF8204610BD70B50D46044601F078FF64
:1008B000A02001F036FF01F0A9FF204601F031FF32
:1008C00001F0A4FF284601F02CFF01F09FFF01F08A
:1008D00082FFBDE87040012000F072B8704710B58B
:1008E00090F8253000210122022B03D00421C1639E
:1008F000012122E003681C6824F00E041C60836C54
:100900001C6824F480741C6003681C6824F00104D3
:100910001C6090F84430046C03F01F0302FA03F3E8
:100920006360D0E913345C60436D33B11C6824F418
:1009300080741C60D0E916345C6080F825200022A9
:1009400080F82420084610BD70B590F825200024BA
:1009500001212346022A07D00422C26380F8251011
:1009600080F82430012429E00268156825F00E057E
:1009700015600268156825F001051560826C156820
:1009800025F48075156090F84420056C02F01F0274
:1009900001FA02F26A60D0E913255560426D32B166
:1009A000156825F480751560D0E91625556080F826
:1009B000251080F82430816B01B18847204670BD36
:1009C00070B5044600F03CF90546601C02D00448AE
:1009D0004068044400F034F9401BA042FAD370BDD3
:1009E000140000202DE9F04FDFF8209200230126AB
:1009F0000324A9F1040B85B00F2709F1040AABF118
:100A0000040EFAE006FA03F52A407CD091F804C0FF
:100A10000CF0030CBCF1010F02D0BCF1020F26D187
:100A2000D0F808C0CDF800C04FEA430C04FA0CF827
:100A3000CDF810C0DDF800C02CEA080CCDF800C0DD
:100A4000D1F80C80DDF810C008FA0CF8DDF800C011
:100A500048EA0C08C0F80880D0F804C02CEA050C5D
:100A60000D79C5F300159D4045EA0C0545600D79EB
:100A7000ED43AD070ED0C5684FEA430804FA08FC01
:100A800025EA0C05D1F808C00CFA08FC4CEA050C64
:100A9000C0F80CC00D7905F00305022D16D1DD0854
:100AA00000EB850CCDF808C0DCF820805D074FEA2C
:100AB000D56C07FA0CF528EA05080D6905FA0CF55E
:100AC000DDF808C045EA0805CCF8205005684FEA73
:100AD000430CCDF808C004FA0CFC25EA0C0591F88B
:100AE00004C00CF00308DDF808C008FA0CF848EA66
:100AF0000508C0F800804D6815F4403F7CD0444D97
:100B0000D5F860C000E077E04CF0010CC5F860C09B
:100B10002D6E23F0030C05F0010500953D4D654455
:100B20000295AD684FEA837C4FEA1C7807FA08FC0F
:100B300025EA0C05B0F1904F06D0DFF8DCC0604527
:100B400005D14FF0010C20E04FF0000C1DE0DFF864
:100B5000CCC0604502D14FF0020C16E0DFF8C0C0F7
:100B6000604502D14FF0030C0FE0DFF8B8C06045DC
:100B700002D14FF0040C08E0DFF8ACC0604502D1B0
:100B80004FF0050C01E04FF0060C0CFA08FC4CEAA3
:100B9000050C029DC5F808C0D9F80050CC46D1F824
:100BA000048095435FEAC82800D51543CCF800506F
:100BB000DAF80050D446D1F8048095435FEA8828DB
:100BC00000D51543CCF80050DBF80050DC46D1F8D6
:100BD000048095435FEA883800D51543CCF800506F
:100BE000DEF80050F446D1F8048095435FEAC83837
:100BF00000D51543CCF800505B1C0A6832FA03F5A7
:100C00007FF400AF05B0BDE8F08F0000080401409C
:100C100000100240000001400004004800080048A5
:100C2000000C00480010004800140048006908400B
:100C300000D0012070470AB181617047816270471E
:100C40000148806870470000140000200248816855
:100C500042681144816070471400002010B50024E0
:100C6000032000F073F8002000F008F808B1012418
:100C700001E000F025F8204610BD000070B50E4ED2
:100C800005460024706898B14FF47A71B1FBF0F01A
:100C90000A490968B1FBF0F000F064FD40B9102D7D
:100CA00006D200222946501E00F030F8356000E0E0
:100CB0000124204670BD0000140000200800002020
:100CC0000A4882B0016E41F001010166016E01F037
:100CD00001010091816D41F080518165806D00F0CE
:100CE0008050009002B000F0A1B800000010024057
:100CF000002809DB00F01F0201219140400980001B
:100D000000F1E020C0F8001170470000F0B40E4B75
:100D10001B680C46C3F30223C3F10705042D00D959
:100D20000425191D072901D2002300E0DB1E01263E
:100D300006FA05F1491E214099409E40761E164054
:100D40003143F0BC03F07EBB0CED00E0064900F03F
:100D5000070208684FF6FF03184040EA0220034AE2
:100D600010430860704700000CED00E00000FA0539
:100D70002B492C4B0A6832214A432B4940B1B0F52C
:100D8000007F086829D020F4C06040F480602CE027
:100D90000868C0F34120022804D051F8800F20F4E5
:100DA000807022E0D1F8800020F48070C1F88000CB
:100DB000086820F4C06040F400700860B2FBF3F0F3
:100DC000401C00E0401E4A69520501D50028F9D1B7
:100DD000486940050AD503207047C0F34120022826
:100DE00006D051F8800F40F48070086000207047F2
:100DF000D1F8800040F48070C1F88000086820F4C9
:100E0000C06040F400700860B2FBF3F0401C00E0EA
:100E1000401E4A695205DBD50028F9D1D8E7000009
:100E20000800002040420F00007000400248816826
:100E300041F4804181607047007000402DE9F84323
:100E40000446006800269D4D00035ED5A86D00276E
:100E5000C00008D4A86D40F08050A865A86D012797
:100E600000F080500090DFF85892D9F8001041F45B
:100E70008071C9F80010FFF7E3FE804606E000BF6E
:100E8000FFF7DEFEA0EB080002282BD8D9F80000FF
:100E9000C005F5D5D5F8900010F4407014D0216C41
:100EA000814211D0D5F89000D5F8901020F4407010
:100EB00041F48031C5F89010D5F8901021F48031BC
:100EC000C5F89010C5F89000C00711D0FFF7B8FE24
:100ED000804641F2883907E0FFF7B2FEA0EB080137
:100EE000494501D903260BE0D5F890008007F3D5DA
:100EF000D5F89000216C20F440700843C5F89000AC
:100F00001FB1A86D20F08050A8652078C00707D0D9
:100F1000D5F88800616820F003000843C5F8880010
:100F20002078800707D5D5F88800A16820F00C004C
:100F30000843C5F888002078400707D5D5F8880011
:100F4000E16820F030000843C5F8880020780007E9
:100F500007D5D5F88800216920F0C0000843C5F8FE
:100F600088002078800607D5D5F88800616920F4CC
:100F700040600843C5F888002078400607D5D5F8BA
:100F80008800A16920F440500843C5F88800207803
:100F9000000607D5D5F88800E16920F440400843F1
:100FA000C5F888002088C00507D5D5F88800216AD3
:100FB00020F440300843C5F888002088800507D514
:100FC000D5F88800616A20F440200843C5F88800FD
:100FD000208840050FD5D5F88800A16A20F440107C
:100FE0000843C5F88800A06AB0F5801F03D1E868FF
:100FF00040F48010E860208800050FD5D5F88800FF
:10100000E16A20F440000843C5F88800E06AB0F5C2
:10101000800F03D1E86840F48010E8602088C004A5
:101020000FD5D5F88800216B20F040700843C5F833
:101030008800206BB0F1807F03D1E86840F4801015
:10104000E86020884FF0006180040ED5D5F8880054
:10105000626B20F040601043C5F88800606B8842E6
:1010600003D1E86840F48010E860208840040ED581
:10107000D5F88800A26B20F040601043C5F88800C6
:10108000A06B884203D1E86840F48010E8602088B3
:1010900000040FD5D5F88800E16B20F040500843DC
:1010A000C5F88800E06BB0F1805F03D1E86840F4D8
:1010B0008030E8603046BDE8F88300000010024050
:1010C000007000402DE9F0470E4605004FF0000784
:1010D00025D0DFF8AC81D8F8000000F00F00B04256
:1010E0000CD2D8F8001021F00F013143C8F80010DD
:1010F000D8F8000000F00F00B04210D12968614C10
:10110000C80741F2883A5AD06868DFF87C91032812
:1011100008D0022820682DD0400500282CDB0120B3
:10112000BDE8F08720688001F9D5E06800F003028F
:10113000E068C0F30310401C032A19D0534A00BFD3
:10114000B2FBF0F0E268C2F306225043E268C2F359
:101150004162521C5200B0FBF2F0484517D9A0681A
:1011600010F0F00F0CD0880711D5A86840B10EE040
:10117000474AE5E78003D0E700F0B6F8484506D9CE
:10118000A06820F0F00040F08000A0608027A068F8
:10119000696820F003000843A060FFF751FD814615
:1011A00006E000BFFFF74CFDA0EB090151453AD81E
:1011B000A068696800F00C00B0EB810FF2D12868DC
:1011C000810714D5400703D5A06840F4E060A06013
:1011D0002878000705D5A06820F4605040F4E0604E
:1011E000A060A068A96820F0F000084304E0802F08
:1011F00003D1A06820F0F000A060D8F800104046AD
:1012000001F00F01B14216D9016821F00F013143FD
:101210000160FFF715FD074607E000BFFFF710FD6F
:10122000C11B514501D903207AE7D8F8000000F02E
:101230000F00B042F2D12878400705D5A068E968D0
:1012400020F4E0600843A0602878000706D5A06875
:10125000296920F4605040EAC100A06000F044F821
:10126000A1680C4AC1F30311515C01F01F01C84091
:101270000949086009480068BDE8F047FFF7FEBC6F
:10128000002002400010024000B4C4040024F40016
:1012900000366E01D464000808000020140000200D
:1012A0000548064900688968054AC1F30221515C76
:1012B00001F01F01C84070470800002000100240E4
:1012C000E46400080548064900688968054AC1F3D6
:1012D000C221515C01F01F01C84070470800002086
:1012E00000100240E4640008184910B58868C0F393
:1012F00081021748012A0BD08A68164BC2F381027B
:10130000022A06D08A68C2F38102032A03D0002091
:1013100010BD184610BDCA6802F00304CA68C2F3C3
:101320000312521C032C02D0B0FBF2F001E0B3FB1D
:10133000F2F0CA68C968C2F306225043C1F34161A2
:10134000491C4900B0FBF1F010BD00000010024044
:101350000024F40000366E012DE9F84304007AD031
:101360002078FA4DC00747D0A868E96800F00C0063
:1013700001F003010C2802D0082817D001E003294E
:1013800014D06068B0F5803F17D0B0F5A02F286862
:1013900017D020F480302860286820F4802028604E
:1013A0006068E0B1FFF74CFC064614E02868800353
:1013B00022D560680028D2D01EE0286840F4803032
:1013C000EDE740F480202860F7E700BFFFF738FC26
:1013D000801B642870D828688003F7D50CE0FFF7DD
:1013E0002FFC064605E000BFFFF72AFC801B64289F
:1013F000F0D828688003F7D4207880074CD5A868F7
:10140000E96800F00C0001F003010C2802D0042868
:101410000DD001E002290AD0E068002828682BD00E
:1014200040F480702860FFF70BFC064619E028683E
:10143000400502D5E068002891D06868217C20F042
:10144000FE4040EA01606860C1480068FFF716FC92
:10145000002800D120E076E1FFF7F2FB801B022894
:10146000B8D828684005F7D56868217C20F0FE4090
:1014700040EA016068600FE020F480702860FFF7A8
:10148000DFFB064605E000BFFFF7DAFB801B022802
:10149000A0D828684005F7D42078000729D56069CE
:1014A0000028D5F8940013D040F00100C5F894004E
:1014B000FFF7C6FB064606E090E000BFFFF7C0FB63
:1014C000801B022886D8D5F894008007F6D510E056
:1014D00020F00100C5F89400FFF7B2FB064604E0D7
:1014E000FFF7AEFB801B022878D8D5F89400800760
:1014F000F6D42078400761D5A86D0026C00008D436
:10150000A86D40F08050A865A86D012600F08050BD
:10151000009090480168C90511D40168804641F4E3
:1015200080710160FFF78CFB074604E0FFF788FB42
:10153000C01B022852D8D8F80000C005F6D5A06814
:10154000012815D00528D5F8900016D020F001000C
:10155000C5F89000D5F8900020F00400C5F8900080
:10156000A06841F28838B8B1FFF76AFB07460EE081
:10157000D5F8900040F00100F0E740F00400C5F815
:101580009000F5E7FFF75CFBC11B414526D8D5F875
:1015900090008007F6D50CE0FFF752FB074604E009
:1015A000FFF74EFBC11B414518D8D5F890008007C6
:1015B000F6D41EB1A86D20F08050A8652078800672
:1015C00029D5A0690028D5F8980013D040F0010073
:1015D000C5F89800FFF734FB064606E077E000BF49
:1015E000FFF72EFB801B022877D8D5F898008007DC
:1015F000F6D510E020F00100C5F89800FFF720FBB9
:10160000064604E0FFF71CFB801B022865D8D5F8CE
:1016100098008007F6D4E069F0B3A968C1F38101AE
:10162000032961D00228286820F0807028600BD040
:10163000E86820F00300E860E86847490840E8608F
:10164000FFF7FEFA04464BE0FFF7FAFA064604E01D
:10165000FFF7F6FA801B02283FD828688001F7D4EC
:10166000F4E908016FF00F0202EB01110843218A2F
:101670005204490802EB4151A26841EA02210843A1
:10168000217D4FF07E42490802EB41610843217BF6
:1016900040EAC160E96800E062E0304A1140084376
:1016A000E860286840F080702860E86840F080704A
:1016B000E860FFF7C5FA044605E000BFFFF7C0FA8F
:1016C000001B022809D828688001F7D548E004E00B
:1016D000FFF7B6FA001B022802D90320BDE8F88301
:1016E00028688001F4D43BE00128F7D0E868226A3A
:1016F00000F00301914226D1616A00F0F002090175
:10170000103991421FD1A26A00F4FE41B1EB022FC1
:1017100019D194F82C2000F07841B1EBC26F12D1AE
:10172000218E00F4C00249084905A1F5001191423B
:1017300009D194F8341000F0C06049084906A1F1BD
:10174000007181420CD00120C8E700000010024067
:101750001400002000700040FFFFEEFE0C809F018F
:101760000020BBE710B5401EB0F1807F01D30120FF
:1017700010BD4FF0E02460610F21601702F062FE9F
:101780000020A06107202061002010BD7047704735
:101790007047704770477047F0B590F83C20012AB9
:1017A0003AD0012580F83C50022280F83D200368A1
:1017B0005A689C68194E1A4FB34201D0BB4204D1FB
:1017C00022F4700C4A6842EA0C02DFF858C002EAC0
:1017D0000C02D1F800C04CEA020CC3F804C0026845
:1017E000B2420DD0B2F1804F0AD00F4B9A4207D0CF
:1017F0000E4B9A4204D0BA4202D00D4B9A4204D109
:10180000896824F080031943916080F83D500021DD
:1018100080F83C100846F0BD0220F0BD002C0140CD
:10182000003401408FFFFFFD00040040000800402D
:1018300000400140704710B5040003D094F83D000B
:1018400010B107E0012010BD002084F83C002046C4
:1018500000F022F8022084F83D00211D206801F0EC
:1018600075FE012084F8480084F83E0084F83F00AB
:1018700084F8400084F8410084F8420084F8430072
:1018800084F8440084F8450084F8460084F8470052
:1018900084F83D00002010BD08B501681948B1F179
:1018A000804F11D0184A914217D1816D41F0020149
:1018B0008165806D002200F00200009011461D201D
:1018C000FFF724FA1D2019E0816D41F001018165C7
:1018D000806D00F00100009008BD0C4A9142FBD1E0
:1018E000816D41F004018165806D002200F00400EB
:1018F000009011461E20FFF709FA1E20BDE808409F
:10190000FFF7F6B900100240000400400008004054
:1019100090F83D10012901D001207047022180F884
:101920003D1000680F4988420ED0B0F1804F0BD0B7
:101930000D49884208D00D49884205D00C4988429B
:1019400002D00C49884207D181680B4A1140062910
:1019500006D0B1F5803F03D0016841F0010101607C
:1019600000207047002C01400004004000080040A7
:1019700000340140004001400700010090F83D1094
:10198000012901D001207047022180F83D10016833
:10199000CA6842F00102CA600068104988420ED04D
:1019A000B0F1804F0BD00E49884208D00D498842D3
:1019B00005D00D49884202D00C49884207D1816880
:1019C0000B4A1140062906D0B1F5803F03D00168CB
:1019D00041F001010160002070470000002C01402F
:1019E0000004004000080040003401400040014075
:1019F000070001000168CA6822F00102CA6001689C
:101A00000A6A41F211131A4207D10A6A9B001A426C
:101A100003D10A6822F001020A60012180F83D101A
:101A20000020704770B5044690F83C00002501285E
:101A300014D0012684F83C60022084F83D0022681E
:101A40009068364B184020F47F40906008687028FA
:101A50002ED010DC10F00F0F03D021E04FF0020069
:101A600070BD4FEA2012072A1AD2DFE802F0525264
:101A700052524A3840002A4BC21A984249D009DCD7
:101A8000B0F5805F0DD0B0F5005F1CD0B0F1101F35
:101A900006D13EE0102A3CD0202A3AD0502A38D035
:101AA000012584F83D60002084F83C00284670BD84
:101AB000CB68D1E90121206801F0ADFD2068816883
:101AC00041F0770109E0CB68D1E90121206801F0FC
:101AD000A2FD2068816841F480418160E1E7CA6825
:101AE0004968206801F042FF5021206806E0CA687A
:101AF0004968206801F04BFF6021206801F096FDE5
:101B0000CFE7CA684968206801F030FF40212068AB
:101B1000F4E7226801461046F0E7000088FFCEFF98
:101B200020001000704770B50446006801694FF04E
:101B30000005C943890715D4C168C943890711D471
:101B4000E91E016101202077206880698007204616
:101B500002D0FFF7E7FF04E000F00AF9204600F0AA
:101B6000CCF9257720680169C943490717D4C168B2
:101B7000C943490713D46FF00401016102202077A3
:101B80002068806910F4407F204602D0FFF7CAFF2A
:101B900004E000F0EDF8204600F0AFF9257720686A
:101BA0000169C943090716D4C168C943090712D49A
:101BB0006FF008010161042020772068C069800768
:101BC000204602D0FFF7AEFF04E000F0D1F8204637
:101BD00000F093F9257720680169C943C90617D435
:101BE000C168C943C90613D46FF010010161082010
:101BF00020772068C06910F4407F204602D0FFF7AC
:101C000091FF04E000F0B4F8204600F076F9257763
:101C100020680169C943C90708D1C168C943C90718
:101C200004D1891E0161204600F0E6F920680169AF
:101C3000C943090609D4C168C943090605D46FF030
:101C4000800101612046FFF7A2FD20680169C943B8
:101C5000C90509D4C168C943090605D46FF4807168
:101C600001612046FFF792FD20680169C9434906DA
:101C700009D4C168C943490605D46FF04001016128
:101C8000204600F0EBF920680169C943890609D4B0
:101C9000C168C943890605D46FF02001016120465F
:101CA000FFF776FD20680169C943C90209D4C168FC
:101CB000C943C90205D46FF4801101612046FFF7C2
:101CC00069FD20680169C943890209D4C168C94313
:101CD000890205D46FF4001101612046FFF759FD18
:101CE00020680169C943490209D4C168C94349024E
:101CF00005D46FF4800101612046FFF74CFD206898
:101D00000169C94309020BD4C168C943090207D458
:101D10006FF4000101612046BDE87040FFF78ABD05
:101D200070BD000010B586B0044614216846FEF769
:101D3000A9FA2068B0F1804F15D10C48C16C41F070
:101D40000101C164C06C694600F0010005900220E9
:101D500000900190002002900390012004904FF029
:101D60009040FEF73FFE06B010BD0000001002409C
:101D7000704770B5044690F83C0000260D460128D7
:101D80000BD0012084F83C000C2A4AD007DC82B139
:101D9000042A20D0082A06D131E0022070BD102A82
:101DA00053D0142A63D00126002084F83C0030462A
:101DB00070BD206801F044FC2068816941F0080191
:101DC00081612068816921F0040181612068816955
:101DD0002A69114311E0206801F080FC20688169C4
:101DE00041F4006181612068816921F48061816131
:101DF000206881692A6941EA02218161D4E720686B
:101E000001F0B4FC2068C16941F00801C16120689B
:101E1000C16921F00401C1612068C1692A691143C7
:101E200011E0206801F0EAFC2068C16941F400611A
:101E3000C1612068C16921F48061C1612068C16904
:101E40002A6941EA0221C161AEE7206801F01EFD66
:101E50002068016D41F0080101652068016D21F0E5
:101E6000040101652068016D2A69114311E02068B1
:101E700001F044FD2068016D41F4006101652068B6
:101E8000016D21F4806101652068016D2A6941EAD4
:101E90000221016588E710B5040003D094F83D00E5
:101EA00010B107E0012010BD002084F83C0020465E
:101EB00000F022F8022084F83D00211D206801F086
:101EC00045FB012084F8480084F83E0084F83F0078
:101ED00084F8400084F8410084F8420084F843000C
:101EE00084F8440084F8450084F8460084F84700EC
:101EF00084F83D00002010BD7047704730B504469F
:101F0000022269B1042912D0082917D00C291CD04B
:101F1000102921D094F84300012824D0012030BD9D
:101F200094F83E000128F9D184F83E201DE094F891
:101F30003F000128F2D184F83F2016E094F84000D9
:101F40000128EBD184F840200FE094F841000128EB
:101F5000E4D184F8412008E094F842000128DDD162
:101F600084F8422001E084F843200122206801F037
:101F700045FB194B20681949194A984209D08842F3
:101F800007D0904205D0174DA84202D0164DA84266
:101F900003D1456C45F400454564206898420CD057
:101FA000B0F1804F09D0114B984206D0104B9842A7
:101FB00003D0884201D0904207D181680D4A114078
:101FC000062906D0B1F5803F03D0016841F0010138
:101FD0000160002030BD0000002C014000340140B1
:101FE000004001400044014000480140000400401E
:101FF00000080040070001002DE9F04107461248A3
:1020000001260025114C87420AD1E01E417871B1AA
:102010000F4925709620096888630B48FFF7EAFC92
:102020000C48874204D10C48818819B109E04670F8
:10203000BDE8F081808920B96078012801D0667000
:10204000F6E76570F4E70000B80000200F000020FC
:10205000200000206C000020B4010020704790F8A0
:102060008010012918D0012180F880102421C0F8A7
:10207000841050F8641B0A680B6823F001030B609E
:1020800022F000510022026050F8643C19602021C7
:102090000162027710467047022070477047704710
:1020A00070B5044690F8800001281DD0012084F806
:1020B00080002420C4F8840020680568026822F0AB
:1020C000010202602068826822F060620A43826036
:1020D000204601F06FFC206805602020C4F88400D1
:1020E000002084F8800070BD022070BD70B50446E9
:1020F00090F8800001281DD0012084F88000242061
:10210000C4F8840020680568026822F001020260B9
:102110002068826822F060420A438260204601F013
:1021200049FC206805602020C4F88400002084F861
:10213000800070BD022070BD70477047704700007E
:102140002DE9F04103680446D86919689A6840F699
:102150000F0528424FF0000509D186067ED501F013
:10216000200602F080573E4378D0216F27E1A94E28
:10217000A94F16400F40374370D0C70709D0CF058D
:1021800007D501271F62D4F88C3043F00103C4F84F
:102190008C3083070AD5D30708D0276802233B6217
:1021A000D4F88C3043F00403C4F88C3043070AD5CC
:1021B000D30708D0276804233B62D4F88C3043F05F
:1021C0000203C4F88C3003070CD501F0200333431D
:1021D00008D0266808233362D4F88C3043F0080313
:1021E000C4F88C3003050BD54B0109D526684FF494
:1021F00000633362D4F88C3043F02003C4F88C3091
:10220000D4F88C30002B3AD0800609D501F020009C
:1022100002F08051084303D0216F09B1204688475E
:10222000D4F88C0021688968490602D410F0280F80
:1022300027D0204601F07EFC2068806840061BD530
:102240002068083050E8001F21F0400140E80012EB
:10225000002AF5D1E06F78B1704900E017E08163A2
:10226000E06FFEF771FB002809D0E06F816B00E0A2
:102270002046BDE8F04108472046FFF75FFFBDE874
:10228000F0812046FFF75AFFC4F88C50F7E7E76E5D
:102290002026012F7ED1C7067CD5CF067AD5102007
:1022A000186220688068400642D5E16F086840687F
:1022B0000004000CE3D0B4F85C208242DFD9A4F81B
:1022C0005E000868006880062BD4206850E8001F74
:1022D00021F4807140E80012002AF6D1206808300D
:1022E00050E8001F21F0010140E80012002AF5D15A
:1022F0002068083050E8001F21F0400140E800123B
:10230000002AF5D1C4F88860E566216851E8000F1D
:1023100020F0100041E80002002AF6D1E06FFEF73D
:10232000DEFAB4F85C00B4F85E10401A81B22CE01A
:10233000B4F85C00B4F85E10401A81B2B4F85E00E4
:1023400000289CD000299AD0226852E8000F20F47F
:10235000907042E80003002BF6D12E4BDB4320683F
:10236000083050E8002F1A4040E80027002FF6D12F
:10237000C4F88860E5662567226852E8000F20F0FF
:10238000100042E80003002BF6D12046FFF786FE3E
:1023900075E7FFE7C70209D5570207D54FF480104C
:1023A00018622046BDE8F041FFF7C7BE03060AD514
:1023B00001F0800302F40002134304D0616F00298E
:1023C0007FF456AF5BE7420611D54A060FD520468B
:1023D000016851E8002F22F0400241E80023002B61
:1023E000F6D1C0F88460456700F05CF947E7020267
:1023F00006D54A0004D52046BDE8F041FFF79CBE53
:10240000C001C5D50029C3DA2046BDE8F041FFF779
:1024100046BE00000100001020010004213B00081E
:1024200010B5040003D0D4F8840010B107E00120F7
:1024300010BD002084F88000204600F027F82420FA
:10244000C4F884002068016821F001010160204681
:1024500001F0B2FD0128EBD0A06A10B1204601F0D6
:10246000CBFA2068416821F490414160206881687E
:1024700021F02A0181602068016841F001010160BA
:102480002046BDE8104001F01BBB000010B598B01D
:102490000446142111A8FDF7F5FE44216846FDF716
:1024A000F1FE1B492068884230D101200024CDE98B
:1024B00000046846FEF7C2FC08B1FEF70FFA1548A3
:1024C000016E41F480410166016E01F48041169174
:1024D000C16C41F00101C164C06C11A900F00100A0
:1024E00016904FF4C06011900220CDE9120407202D
:1024F000CDE914404FF09040FEF774FA00221146E7
:102500002520FEF703FC2520FEF7F2FB18B010BDD6
:10251000003801400010024030B4D0F88830202B41
:1025200020D1E1B1DAB190F88030012B1AD001232B
:1025300080F880300023C3660B4C0368A3420BD0A5
:102540005B681B0208D5046854E8003F43F08063D1
:1025500044E80035002DF6D130BC01F067BE012003
:1025600030BC70470220FBE70080004070B517497F
:1025700086B0884227D1164880783F2823D101228F
:102580000B2102A8FDF777FE124EB068FDF72CFF75
:1025900004460D463068FDF727FF41EC100B0EA1F5
:1025A00053EC102B02A8CDE9004501F037FF1423AE
:1025B0000B2202A9054800F017F805490122891CE1
:1025C0000248FFF7A9FF06B070BD0000040100201B
:1025D0000C000020B4010020583A252E31662C59F9
:1025E0003A252E31660000002DE9F8430446D0F864
:1025F00084001F4616460D46202851D1DDB1D6B1C4
:1026000094F8800001284BD0012084F880004FF01E
:102610000008C4F88C802120C4F884001834FEF728
:102620000FFBA6878146E68754F8100C183CB0F5DE
:10263000805F03D004E00120BDE8F883206920B169
:102640002E46002584F8808010E00026FAE78021DD
:10265000204601F077FEB8B9C6B116F8010B216823
:102660008862B4F85600401EA4F85600B4F856002C
:102670004B464FF0000200970028E8D14FF0400190
:10268000204601F05FFE30B10320D5E735F8020B9C
:10269000C0F30800E3E72020C4F884000020CBE763
:1026A0000220C9E77047FEE700B585B014216846EF
:1026B000FDF7E8FDC020009001200190029002206B
:1026C000039069460248FEF78DF905B000BD000091
:1026D0000004004870B50824002500F0B5FE13E0A2
:1026E0006806050E002000F097FE142002F0F8FBAB
:1026F000142002F0F5FB012000F08EFE142002F001
:10270000EFFB00F095FE0543641EE4B2E8D2002022
:1027100000F082FE142002F0E3FB00F0B7FE284632
:1027200070BD70B50446082516E000F075FE142053
:1027300002F0D6FB04F0800000F09CFE142002F0B2
:10274000CFFB6006040E142002F0CAFB012000F04B
:1027500063FE142002F0C4FB6D1EEDB24FF00000CA
:10276000E3D200F059FEBDE87040142002F0B8BB7F
:1027700010B5012000F07EFE142002F0B1FB142001
:1027800002F0AEFB012000F047FE142002F0A8FB8F
:10279000002000F041FEBDE81040142002F0A0BB74
:1027A00010B5012000F066FE142002F099FB012014
:1027B00000F032FE142002F093FB002000F05AFEDD
:1027C000142002F08DFB002000F026FEBDE8104032
:1027D000142002F085BB10B5002000F01DFE14206F
:1027E00002F07EFB002000F045FE142002F078FB92
:1027F000012000F011FE142002F072FB012000F015
:1028000039FEBDE81040142002F06ABB10B5052463
:1028100000F01AFE142002F063FB012000F0FCFD22
:10282000142002F05DFB05E0641EA4B2142002F047
:1028300057FB6CB100F0FCFD0028F5D100F026FE3E
:10284000002000F0E9FD142002F04AFB002010BD3A
:1028500000F01CFEFFF7BFFF012010BD00B585B0E2
:1028600014216846FDF70EFD4FF6FF700090002022
:102870000321CDE90201019069460248FEF7B2F852
:1028800005B000BD0008004800B585B014216846B9
:10289000FDF7F8FC4FF6FF70009001200190032037
:1028A00003900020029069460248FEF79BF805B0AD
:1028B00000BD00000008004870B50024064621460F
:1028C000204600F013F900F051F94FF496353046E8
:1028D00000F020F9641CAC42F9D370BD01A100F0F6
:1028E00061B800002020202020202020202020204F
:1028F00020202020202020200000000030B587B0BC
:1029000014216846FDF7BEFC1E48C16C41F004016D
:10291000C164C16C01F004010591C16C41F0010179
:10292000C164C16C01F001010591C16C41F002016B
:10293000C164C06C012500F0020005904FF448709E
:10294000CDE9000500240394694602940E48FEF781
:1029500049F8280203940090CDE901544FF09044C7
:1029600069462046FEF73EF8FFF78EFFA06940F467
:102970008070A06104481830016841F4087101605A
:1029800007B030BD0010024000040048203AD2B227
:10299000034B02EB420203EB021200F019B80000F5
:1029A00004530008F0B50E460746002540F23F14D8
:1029B00007E021463846FFF7E9FF103C6D1CA4B242
:1029C000761C3278002A01D0142DF2D3F0BD00001D
:1029D0002DE9F04791468A460026044600F086F825
:1029E000DFF84080012700BF00F0C0F85FF000056D
:1029F00039F8160007FA05F10842404601D140882F
:102A000000E0008800F086F86D1C102DF0D3641CE7
:102A1000E4B25146204600F069F8761C182EE3D344
:102A2000BDE8F0870000002010B5FFF767FF002029
:102A300000F014F8084CA080A088A0F502413039BD
:102A400006D000F0E7FB002000F008F8A08010BDE1
:102A500000F057FBF7E700000000002070B51D49AB
:102A60000A6842F400720A600A6842F480720A60DE
:102A7000184C103C226842F020022260164A106076
:102A8000086840F02000086000BF00BF00BF206859
:102A900040F020002060206840F480702060FFF744
:102AA000DDFE4FF09041886A40F48070886200BF7C
:102AB00000BF00BF0848001F006885B2886940F465
:102AC00080708861FFF7E0FE206840F400702060AD
:102AD000284670BD280400481408004801B5BDF818
:102AE00000000149488008BD0000002010B50C46D8
:102AF0000146202000F068F82146BDE81040212062
:102B000000F062B801B5BDF800000149088008BDB9
:102B100000000020134A116841F40071116011494E
:102B200010390B6843F480730B600B6843F020038B
:102B30000B600D4B1860106840F02000106000BF63
:102B400000BF00BF086840F020000860086840F43B
:102B50008070086000BF00BF00BF086840F40070CC
:102B600008607047280400481408004814490868A1
:102B700040F400700860086840F4807008601048F5
:102B80001038026842F0200202600E4B22221A60C6
:102B90000A6842F020020A6000BF00BF00BF01685F
:102BA00041F020010160016841F48071016000BFC3
:102BB00000BF00BF016841F4007101607047000070
:102BC0002804004814080048184B10B51A6842F44D
:102BD00000721A601A6842F480721A60134A103A3E
:102BE000146844F020041460114C2060186840F010
:102BF0002000186000BF00BF00BF106840F0200038
:102C00001060106840F4807010602160186840F017
:102C10002000186000BF00BF00BF106840F0200017
:102C20001060106840F48070106010BD28040048E7
:102C30001408004870B500F097F80D4C01220421EB
:102C40002046FDF7F8FF0B4D00224FF48071284617
:102C5000FDF7F1FF00224FF400712846FDF7EBFF6E
:102C60002046BDE8704000220421FDF7E4BF0000CB
:102C7000000C00480008004870B51B4C01220421DC
:102C80002046FDF7D8FF194D00224FF480712846E9
:102C9000FDF7D1FF012251022846FDF7CCFF0122AA
:102CA00091022846FDF7C7FF0122D1022846FDF711
:102CB000C2FF012211032846FDF7BDFF0122510387
:102CC0002846FDF7B8FF012291032846FDF7B3FF20
:102CD0000122D1032846FDF7AEFF2046BDE8704033
:102CE00000220421FDF7A7BF000C0048000800489F
:102CF00070B51B4C012204212046FDF79CFF194DA5
:102D0000012211022846FDF796FF00224FF40071C0
:102D10002846FDF790FF012291022846FDF78BFF20
:102D20000122D1022846FDF786FF01221103284621
:102D3000FDF781FF012251032846FDF77CFF0122A8
:102D400091032846FDF777FF0122D1032846FDF7BE
:102D500072FF2046BDE8704000220421FDF76BBFE2
:102D6000000C00480008004870B51B4C01220421EB
:102D70002046FDF760FF194D012211022846FDF79C
:102D80005AFF012251022846FDF755FF0122910208
:102D90002846FDF750FF0122D1022846FDF74BFFE0
:102DA000012211032846FDF746FF01225103284660
:102DB000FDF741FF012291032846FDF73CFF012268
:102DC000D1032846FDF737FF2046BDE870400022BA
:102DD0000421FDF730BF0000000C00480008004847
:102DE00006480178407821B108B1FFF723BFFFF70B
:102DF00043BF08B1FFF77CBFFFF7B6BF0F0000204D
:102E00002DE9F04F87B014216846FDF73BFA4048A2
:102E1000C16C41F00401C164C16C01F00401059171
:102E2000C16C41F02001C164C16C01F02001059129
:102E3000C16C41F00101C164C16C01F00101059157
:102E4000C16C41F00201C164C16C01F00201059145
:102E5000C16C41F00801C164C06CDFF8B88000F0BB
:102E600008004FF6FF740590002221464046FDF70A
:102E7000E2FE4FF480764FF09049002231464846FA
:102E8000FDF7D9FEDFF890A0002204215046FDF79F
:102E9000D2FEDFF888B04FF4487700223946584612
:102EA000FDF7C9FE0125CDE90045002402946946DD
:102EB00040460394FDF796FDCDE900546946484627
:102EC0000294FDF78FFD0720CDE9000469465846BE
:102ED0000294FDF787FD0096CDE901546946484606
:102EE0000394FDF77FFD0420CDE900050320CDE923
:102EF000024069465046FDF775FD0097CDE9015443
:102F0000694658460394FDF76DFD07B0BDE8F08FA4
:102F10000010024000080048000C0048000400486F
:102F200010B58EB000240794089409940A940B9469
:102F30000C941C2168460D94FDF7A4F91E484FF02F
:102F4000804101601021C0E9011441F28731C0E9DC
:102F5000031480218161FEF76EFC08B1FDF7BEFC11
:102F60004FF48050079007A91348FEF75BFD08B1A6
:102F7000FDF7B4FC1048FEF78EFF08B1FDF7AEFC7C
:102F80000B940BA90C480D94FEF706FC08B1FDF755
:102F9000A5FC602000909620CDE90104042269463A
:102FA00005480494FEF7E5FE08B1FDF797FC0248DA
:102FB000FEF7B8FE0EB010BD2000002010B588B09E
:102FC00000241848009401940294039404940594F6
:102FD00013490694016044F26721C0E9011440F2EC
:102FE000E731C0E903148461FEF725FC08B1FDF761
:102FF00075FC4FF48050009069460A48FEF712FDB8
:1030000008B1FDF76BFC049404A906480694FEF78A
:10301000C3FB002801D0FDF761FC08B010BD000023
:10302000000400406C00002010B588B0002418484F
:103030000094019402940394049405941349069413
:10304000016044F26721C0E901144CF24F31C0E93C
:1030500003148461FEF7EFFB08B1FDF73FFC4FF46A
:103060008050009069460A48FEF7DCFC08B1FDF785
:1030700035FC049404A906480694FEF78DFB00284D
:1030800001D0FDF72BFC08B010BD00000008004087
:10309000B8000020184810B5164901604FF41651C9
:1030A0004160002181600C22C160C0E9041281618D
:1030B000C161016241628162FFF7B2F908B1FDF7B7
:1030C0000DFC00210C48FFF711F808B1FDF706FCD4
:1030D00000210948FEF7E4FF08B1FDF7FFFB0648B1
:1030E000FEF7BDFF002803D0BDE81040FDF7F6BB9A
:1030F00010BD00000038014004010020FEE77047C9
:10310000704730B501210020FFF75EFD4FF47A7063
:10311000FDF79AFB00210120FFF756FD41F2907167
:103120001020FFF751FD4FF41C516020FFF74CFDBC
:1031300001216120FFF748FD02214620FFF744FDF1
:1031400048F210011320FFF73FFD48F2FE01122064
:10315000FFF73AFD4FF4A0610220FFF735FD41F281
:1031600030010320FFF730FD40F2033421463020C8
:10317000FFF72AFD21463120FFF726FD21463220A8
:10318000FFF722FDE51E29463320FFF71DFD032131
:103190003420FFF719FD21463520FFF715FD1421D6
:1031A0003620FFF711FD21463720FFF70DFD2146A0
:1031B0003820FFF709FD21463920FFF705FD294694
:1031C0003A20FFF701FD03213B20FFF7FDFC2146DC
:1031D0003C20FFF7F9FC4FF4A0513D20FFF7F4FC31
:1031E0004FF400719220FFF7EFFC21469320FFF788
:1031F000EBFC40F60D019020FFF7E6FC41F21801D0
:103200000320FFF7E1FCBDE8304040F273110720D6
:10321000FFF7DABC10B543F20801E320FFF7D4FC56
:103220001221E720FFF7D0FC41F23121EF20FFF718
:10323000CBFC00210120FFF7C7FC4FF4E061022026
:10324000FFF7C2FC41F230010320FFF7BDFC002173
:103250000420FFF7B9FC40F207210820FFF7B4FC77
:1032600000210920FFF7B0FC00210A20FFF7ACFC89
:1032700000210C20FFF7A8FC00210D20FFF7A4FC83
:1032800000210F20FFF7A0FC00211020FFF79CFC7D
:1032900007211120FFF798FC00211220FFF794FC72
:1032A00000211320FFF790FCC820FDF789FB41F2B5
:1032B00090611020FFF788FC40F227211120FFF7D2
:1032C00083FC3220FDF77CFB1D211220FFF77CFCE4
:1032D0003220FDF775FB4FF400611320FFF774FCFB
:1032E00014212920FFF770FC0B212B20FFF76CFC29
:1032F0003220FDF765FB00212020FFF765FC00214F
:103300002120FFF761FC07213020FFF75DFC40F230
:1033100007713120FFF758FC06213220FFF754FCDB
:1033200040F204713520FFF74FFC41F6047136205E
:10333000FFF74AFC04213720FFF746FC0021382024
:10334000FFF742FC40F206713920FFF73DFC40F2E6
:1033500001713C20FFF738FC0F213D20FFF734FCC2
:1033600000215020FFF730FCEF215120FFF72CFC0B
:1033700000215220FFF728FC40F23F115320FFF7B5
:1033800023FC4FF41C516020FFF71EFC012161203B
:10339000FFF71AFC00216A20FFF716FC00218020AD
:1033A000FFF712FC00218120FFF70EFC0021822094
:1033B000FFF70AFC00218320FFF706FC0021842090
:1033C000FFF702FC00218520FFF7FEFB1021902073
:1033D000FFF7FAFB00219220FFF7F6FB0321932071
:1033E000FFF7F2FB4FF488719520FFF7EDFB00210A
:1033F0009720FFF7E9FB00219820FFF7E5FB41F25A
:1034000018010320FFF7E0FBBDE8104040F2731104
:103410000720FFF7D9BB000008B1044801E00348CA
:103420001030016841F04001016070471804004805
:1034300010B580210348FDF7F9FB012800D00020DA
:1034400010BD00000004004800B585B01421684696
:10345000FCF718FF802000900020019001200290CE
:103460000220039069460248FDF7BCFA05B000BD92
:103470000004004808B1044801E003481030016826
:1034800041F08001016070471804004800B585B024
:1034900014216846FCF7F6FE802000901120019070
:1034A000002002900220039069460248FDF79AFA34
:1034B00005B000BD000400487047FDF7C7BB00B56C
:1034C00093B038216846FCF7DDFE14210EA8FCF706
:1034D000D9FE0020FDF74CFC0220C10103914021E0
:1034E00004910421CDE9080100905521CDE90A108D
:1034F00007900C900D906846FDF72EFF0F200E9060
:1035000003200F90002010901190129004210EA81B
:10351000FDF7D8FD13B000BD0548016841F4700106
:10352000016003494FF00060803908607047000077
:1035300088ED00E00148FEF7F6BA00006C000020BC
:103540000148FEF7F0BA0000B80000202DE9F04372
:103550000268234B234D244E244C4FF0804998425F
:1035600007D0484505D0A84203D0B04201D0A042C0
:1035700003D122F070074A683A431D4FDFF874C048
:10358000DFF8748098420DD048450BD0A84209D08E
:10359000B04207D0A04205D0B84203D0604501D068
:1035A000404503D122F44075CA682A434D6922F090
:1035B00080022A4302608A68C2620A688262984274
:1035C00007D0A04205D0B84203D0604501D04045A5
:1035D00001D10969016301214161BDE8F083000067
:1035E000002C01400004004000080040003401406D
:1035F00000400140004401400048014010B501F086
:103600001F030121046A99408C430462016A9A40B5
:103610001143016210BD10B5846842EA032224F40C
:103620007F440A432243826010BD00008268034B3E
:103630001A400A4342F00701816070478FFFCFFFB5
:103640002DE9F043026A22F001020262056A436832
:1036500082691C4C25F0020522400C6822F003020E
:1036600014438A68194E2A43174D194FDFF864C076
:10367000DFF86490A84207D0B04205D0B84203D02A
:10368000604501D0484506D122F00808CA6842EAE0
:10369000080222F00402A84207D0B04205D0B84286
:1036A00003D0604501D0484505D14D6923F44073EE
:1036B0001D438B692B434360846149684163026207
:1036C000BDE8F0838FFFFEFF002C01400034014075
:1036D000004001400044014000480140F0B5026A4A
:1036E00022F010020262056A42688369194C1B4E7F
:1036F00023400C6823F4407343EA042425F020039C
:103700008D6843EA0513144DA84201D0B04206D19A
:10371000CF6823F0800343EA071323F04003A84255
:103720000AD0B04208D00E4DA84205D00D4DA84297
:1037300002D00D4DA84207D14D6922F4406242EA01
:1037400085028D6942EA850242608461496881632D
:103750000362F0BDFF8FFFFE002C014000340140EA
:10376000004001400044014000480140F0B5026AB9
:1037700022F480720262056A4368C269194C1B4ECA
:1037800022400C6822F00302144325F400728D6875
:1037900042EA0522144DA84201D0B04206D1CF68BA
:1037A00022F4006242EA072222F48062A8420AD090
:1037B000B04208D00E4DA84205D00E4DA84202D00E
:1037C0000D4DA84207D14D6923F4405343EA051338
:1037D0008D6943EA05134360C4614968C1630262AD
:1037E000F0BD00008FFFFEFF002C014000340140BF
:1037F000004001400044014000480140F0B5026A29
:1038000022F480520262056A4268C369194C1B4E59
:1038100023400C6823F4407343EA042425F4005346
:103820008D6843EA0533144DA84201D0B04206D159
:10383000CF6823F4004343EA073323F48043A842CC
:103840000AD0B04208D00E4DA84205D00D4DA84276
:1038500002D00D4DA84207D14D6922F4404242EA00
:1038600085128D6942EA85124260C461496801642B
:103870000362F0BDFF8FFFFE002C014000340140C9
:1038800000400140004401400048014030B5026A58
:1038900022F480320262046A4268036D114D2B40AB
:1038A0000D681D4324F400330C8943EA04430E4C95
:1038B000A0420BD00D4CA04208D00D4CA04205D028
:1038C0000C4CA04202D00C4CA04204D14C6922F412
:1038D000803242EA042242600565496881640362DD
:1038E00030BD00008FFFFEFF002C0140003401407E
:1038F00000400140004401400048014030B5026AE8
:1039000022F480120262046A4268036D114D24F4AD
:1039100000142B400D6843EA05230D8944EA055441
:103920000D4DA8420BD00D4DA84208D00C4DA84219
:1039300005D00C4DA84202D00B4DA84204D14D69D0
:1039400022F4802242EA8522426003654968C1640C
:10395000046230BDFF8FFFFE002C014000340140A7
:1039600000400140004401400048014010B5036A96
:10397000046A24F001040462846924F0F00444EA37
:10398000021423F00A020A438461026210BD10B5DA
:10399000036A23F0100303628369046A23F470430B
:1039A00043EA023224F0A00343EA0111826101627A
:1039B00010BD000030B5416EB9B1026891689268DF
:1039C000C1F342610B4B520F9C5CE50003F108040C
:1039D000A25CB5FBF2F2A0F86A205A5C615CD200EE
:1039E000B2FBF1F1A0F8681030BD0121A0F86A1017
:1039F000F8E700000465000890F82810C90706D011
:103A000001684A68C36A22F400321A434A6090F897
:103A10002810890706D501684A68036B22F48032B2
:103A20001A434A6090F82810490706D501684A6889
:103A3000436B22F480221A434A6090F82810090749
:103A400006D501684A68836B22F400421A434A6033
:103A500090F82810C90606D501688A68C36B22F45D
:103A600080521A438A6090F82810890606D50168AA
:103A70008A68036C22F400521A438A6090F8281076
:103A8000490611D501684A68436C22F480121A4332
:103A90004A60416CB1F5801F06D101684A68836CA9
:103AA00022F4C0021A434A6090F82810090606D58D
:103AB00001684A68C06C22F4002202434A607047E1
:103AC000F8B500260446C0F88C60FDF7B9F8054645
:103AD000206800686FF07E47000708D52B4600225B
:103AE0004FF400112046009700F02CFC60B92068CC
:103AF000006840070AD52B4600224FF4800120467B
:103B0000009700F01FFC08B10320F8BD2020C4F886
:103B10008400C4F8880044F86C6F00202675F8BD56
:103B200010B5806A0021A0F85E10A0F85610FEF7CC
:103B300005FB10BD10B5026852E8001F21F490711A
:103B400042E80013002BF6D10E4B0268083252E80F
:103B5000001F194042E80014002CF6D1C16E012963
:103B600008D1016851E8002F22F0100241E800233B
:103B7000002BF6D12021C0F888100021C166016712
:103B800010BD0000FEFFFFEF10B5B0F86020D0F8C8
:103B900088300168222B04D0886940F008008861D1
:103BA00010BD496A836D11401980816D891C816542
:103BB000B0F85E10491EA0F85E10B0F85E10002943
:103BC000EED1026852E8001F21F4907142E8001320
:103BD000002BF6D10168083151E8002F22F00102D4
:103BE00041E80023002BF5D12021C0F888100021E6
:103BF0000167C26E012A02D0FEF7B8FC10BDC16693
:103C0000026852E8001F21F0100142E80013002B67
:103C1000F6D10168CA69D243D20601D410220A62E1
:103C2000B0F85C10FEF73AFA10BD00002DE9F0473D
:103C30000446B0F860600068C569D0F800A0D0F80C
:103C40000880D4F88810222905D0816941F0080144
:103C50008161BDE8F087B4F868704FF0000963E057
:103C60002068406AA16D30400880A06D801CA0656E
:103C7000B4F85E00401EA4F85E002068C5696907BC
:103C800030D0E9070AD05FEACA5107D501210162A5
:103C9000D4F88C0040F00100C4F88C00A8070BD5C4
:103CA0005FEAC87008D0216802200862D4F88C004E
:103CB00040F00400C4F88C0068070BD55FEAC870B8
:103CC00008D0216804200862D4F88C0040F002007B
:103CD000C4F88C00D4F88C0020B12046FEF72EFAF0
:103CE000C4F88C90B4F85E00F0B9216851E8000F78
:103CF00020F4807041E80002002AF6D1264A2068AC
:103D0000083050E8001F114040E80013002BF6D1A6
:103D10002020C4F88800C4F87090E16E484601295C
:103D200023D02046FEF722FC0FB1A80698D4B4F8A1
:103D30005E0000288DD0B4F86810814289D92068CF
:103D4000083050E8001F21F0805140E80012002A9E
:103D5000F5D112482067206850E8001F41F020018B
:103D600040E80012002AF6D173E7E066216851E8C6
:103D7000000F20F0100041E80002002AF6D1206870
:103D8000C169C943C90601D410210162B4F85C10AD
:103D90002046FEF783F9C7E7FEFFFFEF893B0008E7
:103DA00010B5B0F86020D0F888300168222B04D01C
:103DB000886940F00800886110BD496A1140826D31
:103DC0001170816D491C8165B0F85E10491EA0F824
:103DD0005E10B0F85E100029EED1026852E8001FB4
:103DE00021F4907142E80013002BF6D101680831EC
:103DF00051E8002F22F0010241E80023002BF5D109
:103E00002021C0F8881000210167C26E012A02D06B
:103E1000FEF7ACFB10BDC166026852E8001F21F03E
:103E2000100142E80013002BF6D10168CA69D243A1
:103E3000D20601D410220A62B0F85C10FEF72EF907
:103E400010BD00002DE9F0470446B0F8606000683E
:103E5000C569D0F800A0D0F80880D4F888102229CD
:103E600005D0816941F008018161BDE8F087B4F8AF
:103E700068704FF0000963E02068406AA16D30402F
:103E80000870A06D401CA065B4F85E00401EA4F848
:103E90005E002068C569690730D0E9070AD05FEA8B
:103EA000CA5107D501210162D4F88C0040F001000D
:103EB000C4F88C00A8070BD55FEAC87008D0216849
:103EC00002200862D4F88C0040F00400C4F88C0092
:103ED00068070BD55FEAC87008D021680420086223
:103EE000D4F88C0040F00200C4F88C00D4F88C00A8
:103EF00020B12046FEF722F9C4F88C90B4F85E0099
:103F0000F0B9216851E8000F20F4807041E8000208
:103F1000002AF6D1264A2068083050E8001F1140D8
:103F200040E80013002BF6D12020C4F88800C4F824
:103F30007090E16E4846012923D02046FEF716FB1B
:103F40000FB1A80698D4B4F85E0000288DD0B4F85C
:103F50006810814289D92068083050E8001F21F09C
:103F6000805140E80012002AF5D1124820672168EC
:103F700051E8000F40F0200041E80002002AF6D18D
:103F800073E7E066216851E8000F20F0100041E877
:103F90000002002AF6D12068C169C943C90601D4CC
:103FA00010210162B4F85C102046FEF777F8C7E7ED
:103FB000FEFFFFEFA13D00082DE9F0410446016836
:103FC00080682269E3691043626900251A4310433F
:103FD000DFF82CC20A688B4B1A4002430A60206843
:103FE0004168E26821F44051114341602168A069B1
:103FF000614501D0226A10438A68834B1A4002430C
:104000008A602068C16A626A21F00F011143C162AF
:104010007E4923687E488B420DD1D0F8880010F08D
:10402000030006D0012855D0022842D003283FD1F2
:1040300052E001203DE077498B420BD1D0F8880057
:1040400010F00C0035D0042833D0082840D00C28BC
:104050002ED141E070498B420BD1D0F8880010F08E
:10406000300026D0102835D0202831D030281FD15C
:1040700032E06A498B420BD1D0F8880010F0C000C2
:1040800017D0402826D0802822D0C02810D123E085
:1040900063450DD1D0F8880010F4406009D0B0F528
:1040A000806F17D0B0F5006F12D0B0F5406F13D00D
:1040B00010205B495B4F00264FF4004263453BD123
:1040C00060B1022813D004280BD0082872D10DE06B
:1040D0000220EEE70420ECE70820EAE7FDF7E0F82D
:1040E00001E0FDF701F9010001D17CE01146606AB1
:1040F00037F810206768B1FBF2F007EB4703834203
:1041000070D8B0EB073F6DD8002308461946FCF77E
:1041100081F8090241EA1061020278081018714121
:104120003A460023FCF776F83F4AA0F540719142E9
:1041300058D82168C86056E0E3694FF6EF7893429B
:104140002CD109284ED2DFE800F00508114D0D4DA5
:104150004D4D1000FDF7A4F801E0FDF7B3F80100A4
:1041600004D140E0FDF7C0F8F9E71146606A37F87E
:104170001000B1FBF0F04100606801EB5001B1FBB1
:10418000F0F0A0F1100141452CD84FF6F07101403C
:10419000C0F3420001432068C16024E0092821D215
:1041A000DFE800F0050912200E2020201100FDF7A5
:1041B00077F802E016E0FDF785F8010004D112E07F
:1041C000FDF792F8F9E71146606A37F81000B1FB85
:1041D000F0F1606801EB5001B1FBF0F0A0F11001CB
:1041E00041450AD901250120A4F86A0024F8680F86
:1041F0002846A660E660BDE8F08180B299E700003D
:1042000000800040F369FFCFFFF4FF110038014048
:10421000001002400044004000480040004C0040B4
:104220000024F400EC640008FFFC0F0070B5816509
:10423000A0F85C20A0F85E200021016783684FF49D
:104240008055FF24AB4204D10369FBB940F2FF1350
:1042500022E07F26C3B1B3F1805F1AD0A0F86010CE
:10426000C0F88C102223C0F888300368083353E864
:10427000004F44F0010443E80046002EF5D1436EA0
:10428000B3F1005F0ED032E0036943B9A0F860409B
:10429000E6E703691BB13F23A0F86030E0E7A0F830
:1042A0006060DDE7B0F86830934220D88268AA42A7
:1042B00001D10269CAB11F4A026780F88010016902
:1042C00041B1026852E8001F41F4807142E80013D6
:1042D000002BF6D10168083151E8002F42F08052DE
:1042E00041E80023002BF5D121E0134AE4E782687E
:1042F000AA4201D102697AB1104A026780F880109F
:10430000016959B1026852E8001F41F4907142E816
:104310000013002BF6D10AE0094AEEE7026852E8E2
:10432000001F41F0200142E80013002BF6D10020CD
:1043300070BD0000453E00082D3C0008A13D00086E
:10434000893B00082DE9F0479A4617460E46044679
:104350004FF000094FF02008089D4AE0681C48D043
:10436000FCF76EFCA0EB0A00A8422AD84DB32068E7
:10437000016849073DD5C069C043000539D42168AB
:104380004FF400600862206850E8001F21F4D071EB
:1043900040E80012002AF6D12068083050E8001FDB
:1043A00021F0010140E80012002AF5D144F8848F81
:1043B000C4F80480C4F8088004F8049C0320BDE815
:1043C000F087216851E8000F20F4D07041E8000226
:1043D000002AF6D12068083050E8001F21F00101C2
:1043E00040E80012002AF5D144F8848FC4F8048014
:1043F000E2E72068C06936EA000004D00020B84235
:10440000ACD00020DBE70120F9E700000148FDF710
:1044100097BE000004010020FEE700000FB4084B27
:1044200010B504A902AA039800F0EEF8044602A908
:10443000002000F06CFC204610BC5DF814FB00006E
:104440000F4D00080907090E002804DB00F1E020E9
:1044500080F80014704700F00F0000F1E02080F8B1
:10446000141D704702E008C8121F08C1002AFAD1C3
:1044700070477047002001E001C1121F002AFBD1E4
:10448000704700002DE9FF5F82B00021DDE90430B4
:10449000020DDDF840B0034318D044F61050A2F2EC
:1044A000FF3242431514119801281FD0A5EB0B00D1
:1044B000401C5FEA000A4FF000064E4FDFF83891CB
:1044C000B046504615D5CAF1000413E011980124F6
:1044D0004AA3012801D16FEA0B010298119AC0E9A1
:1044E0000031C0E9024206B0BDE8F09FCBF1000008
:1044F000DFE704460021404A491842EB0450CDE969
:10450000001012E0E00707D032463B4640464946DD
:10451000FCF774F88046894632463B4610461946F9
:10452000FCF76CF806460F466410002CEAD1DDE972
:104530000401DDE90023BAF1000F06DAFCF75EF8AA
:1045400042464B46FCF75AF805E0FCF7C9F84246EC
:104550004B46FCF7C5F804460E460022284BFCF7F4
:1045600047F903D84FF0FF30014607E00022254B02
:1045700020463146FBF791FEFCF721F9102409E0B3
:10458000002C0ADB0A220023FBF744FE039B303297
:104590001A55641E50EA0102F2D1641C039AC4F158
:1045A00011031444119A012A03D0012208430DD1AA
:1045B0000AE0084304D000204FF0110B119072E77D
:1045C000A3EB0B056D1E0DE05B4504DD4FF0000213
:1045D00005F1010504E003DA4FF00002A5F1010541
:1045E000002AECD002981199C0E90231C0E90045D7
:1045F00079E70000000014400000F03F30000000A8
:104600000000F0430000E03F2DE9FF4F95B09A46CF
:10461000884606460025EEE1252877D10024274666
:10462000F94A0121039400E0044316F8013F203BBE
:1046300001FA03F01042F7D130782A2811D06FF038
:104640002F033078A0F13002092A16D8039A44F0DB
:10465000020402EB820203EB42021044761C039038
:10466000EFE758F8042B0392002A03DA504244F48F
:104670000054039044F00204761C30782E2816D1A2
:1046800016F8010F44F004042A280DD06FF02F0211
:104690003078A0F13003092B09D807EB870302EB30
:1046A0004303C718761CF3E758F8047B761C307870
:1046B0006C280FD006DC4C2817D068280DD06A284B
:1046C00014D104E0742810D07A280FD10DE044F4FE
:1046D00000140AE044F4801401E044F440147278B9
:1046E000824202D104F58014761C761C307866284C
:1046F0000BD013DC582877D009DC002875D045286A
:10470000F6D04628F4D047281AD193E118E0632860
:1047100035D0642879D0652812D18BE1702873D008
:1047200008DC6728F1D069286FD06E280DD06F287B
:1047300006D1ACE073282CD0752874D0782853D0DB
:104740005246179990476D1C54E1C4F30250022859
:1047500009D003280DD0D8F8001004280DD00D6022
:1047600008F1040846E1D8F80010EA17C1E9005240
:10477000F6E7D8F800100D80F2E70D70F0E718F8B2
:10478000041B8DF8001000208DF80100EB4601207D
:1047900003E058F804BB4FF0FF3061074FF0000111
:1047A00002D40DE009F101018946B9420FDA8145D1
:1047B000F8DB1BF809100029F4D108E009F1010128
:1047C00089468142FADB1BF809100029F6D10398CB
:1047D0005346A0EB090721463846179A00F080FAA5
:1047E000284400EB090507E044E008E10DE01BF870
:1047F000010B524617999047B9F10109F7D2534678
:1048000021463846179AF2E039E00A21C4F30252F1
:104810004FF0000B0091022A06D058F8040BC11784
:10482000032A09D00AE023E008F1070020F007027C
:10483000F2E80201904605E000B2C117042A01D156
:1048400040B2C117002906DA0A460021404261EB56
:1048500002012D2202E0220504D52B228DF804202E
:10486000012203E0E20701D02022F7E7914657E05A
:104870000A2100E010214FF0000B00910BE0102105
:104880004FF0000B44F004040827009103E00820D7
:104890004FF0000B0090C4F30252022A05D058F8E2
:1048A000040B0021032A08D008E008F1070020F0DB
:1048B0000702F2E80201904603E080B2042A00D128
:1048C000C0B24FF0000922072AD53278702A07D0EB
:1048D000DDF800C08CF0100C5CEA0B0C05D00EE08B
:1048E00040228DF80420012208E050EA010306D09E
:1048F00030238DF804308DF8052002229146009B6C
:1049000083F0080353EA0B030AD150EA010201D1F4
:10491000620705D530228DF804204FF001097F1E73
:104920003278582A04D039A20C920CAA02920BE0D9
:104930003BA2F9E75B46009AFBF76CFC0C9B9B5C87
:10494000029A521E0292137050EA0102F2D10298AA
:1049500004A9081A00F1200B600702D524F4803462
:1049600000E001275F4502DDA7EB0B0000E000201F
:1049700000EB0B01009003984944401A0390E003B8
:1049800006D453462146179A039800F0A9F9054426
:10499000002706E001A85246C05D179990476D1C9C
:1049A0007F1C4F45F6DBE0030CD553462146179A92
:1049B000039800F095F9054404E030205246179919
:1049C00090476D1C0099481E00900029F5DC08E016
:1049D0000298029952460078491C02911799904713
:1049E0006D1CBBF10001ABF1010BF1DC5BE100F0F0
:1049F00065F90544761C307800287FF40DAE19B0B7
:104A00002846BDE8F08F000009280100303132331C
:104A100034353637383961626364656600000000FA
:104A200030313233343536373839414243444546E4
:104A300000000000600700D4062708F1070020F0FE
:104A40000700F0E80223804603F0004C5FEA0C0008
:104A500001D097A009E0200501D596A005E0E00768
:104A600001D095A001E0AFF24C001390307823F014
:104A7000004365280CD006DC452809D046281DD007
:104A800047287FD13BE0662818D067287AD136E0E6
:104A90000021112F01DB112000E0781CCDE900017D
:104AA00004A90CA8FFF7EEFCDDE90D010C9A4FF00C
:104AB000000B07F10109109200914EE04FF0004009
:104AC0000097CDE9011004A90CA8FFF7DBFCDDE994
:104AD0000D020C9B0F994FF0000B91461093009222
:104AE00011B9791C00EB0109B7EB090003D4C0F13F
:104AF000FF3B07F10109A9EB0700019042E0012FFC
:104B000000DA01270021112F01DD112000E03846D5
:104B1000CDE9000104A90CA8FFF7B4FCDDE90D0103
:104B20000C9A00914FF0000BB946109221070FD458
:104B3000009A4A4503DA914601E0A9F10109B9F169
:104B4000010F05DD109AA9F10101515C3029F4D063
:104B5000B84202DA10F1040F03DA0121CDE90110A5
:104B600010E0002803DC8344A9EB000102E0411CB3
:104B7000494500DD8946A0EB0B00401C01904FF039
:104B800000400290200705D40198484502DB4FF011
:104B9000FF30019000208DF84B0002980DF14B077B
:104BA000B0F1004F25D002200C902B200D900298E0
:104BB00000280CDA404202902D200D9007E00A21D7
:104BC0000298FBF740FC3031029007F8011D0C9968
:104BD000481E0C900029F2DC02980028EFD1791EC3
:104BE0000D980870307800F0200040F0450007F87C
:104BF000020D11A8C01BC01D02901398007800B1CF
:104C0000012000EB0901019801EBE07102980144D9
:104C10000398401A401E0390E00306D453462146F1
:104C2000179A039800F05CF805441398007818B1BF
:104C30005246179990476D1CE00323D553462146F1
:104C4000179A039800F04CF805441BE0BBF1000FE5
:104C500007DB0098584504DD1098179910F80B00F1
:104C600001E0179930205246904701980BF1010B53
:104C7000401E05F10105019004D12E2052461799DE
:104C800090476D1CB9F10001A9F10109DEDC05E0D6
:104C900017F8010B5246179990476D1C0299481E50
:104CA00002900029F4DC53462146179A03989EE6A9
:104CB0002D0000002B000000200000002DE9F04135
:104CC000044600251E461746880404D405E03946EC
:104CD0002020B0476D1C641EF9D52846BDE8F08140
:104CE0002DE9F041044600251E469046C80301D533
:104CF000302700E02027880404D505E041463846E7
:104D0000B0476D1C641EF9D52846BDE8F0810A68DD
:104D1000531C0B6010707047F0B58BB0012214214A
:104D200002A8FBF7A8FA4EA102A8FFF777FB02A999
:104D30001420FDF737FE0122142102A8FBF79BFA8D
:104D40004A4C4BA102A8E288FFF768FB02A9502059
:104D5000FDF728FE0122142102A8FBF78CFAE28954
:104D600046A102A8FFF75AFB02A98220FDF71AFE0E
:104D7000454800F005F9002760B1E088A188884225
:104D800002D2401CE08005E05020FDF7A7FDE7803F
:104D900000F08CFA3C48083000F0F2F860B1E0898D
:104DA000A189884202D2401CE08105E08220FDF703
:104DB00095FDE78100F07AFA3348103000F0E0F812
:104DC00000284BD0A088E688B04247D3A089E58967
:104DD000A84243D301220D2107A8FBF74CFA00EEAD
:104DE000106AD4ED000A94ED021AB8EE400A20EEE3
:104DF000200A00EE905AF8EE600A00EE810A10EEEA
:104E0000100AFBF7F1FACDE900012B4632461FA14B
:104E100007A8FFF703FB14230D2207A92048FDF77D
:104E2000E3FBA088E188401AA080A089E189401AAC
:104E3000A081E780E78100F039FA1A490120087063
:104E40005020FDF74BFD8220FDF748FD164940F24A
:104E5000DC50096888631548FCF790FD0BB0F0BD85
:104E60002020202020202053484F5000B401002053
:104E70002020202020583A256400000020202020F7
:104E800020593A25640000009C010020583A25640E
:104E90002C593A25642C5A3A252E31660000000020
:104EA000040100200F00002020000020B800002096
:104EB00010B5094800F064F800280BD00020FDF779
:104EC000FBFC064803220178491CB1FBF2F302FB0C
:104ED0001311017010BD0000940100200C0000208F
:104EE000002100E0491C8142FCD37047416805293C
:104EF00001DD012100E000210170704770B51E4EF8
:104F000001213046FBF792FE1C4C002520B3656062
:104F100002213046FBF78AFE10B3E56004213046DB
:104F2000FBF784FE00B3656101214FF09040FBF771
:104F30007DFEE8B1E5611148FFF7D8FF0F48083062
:104F4000FFF7D4FF0D481030FFF7D0FFBDE87040E9
:104F50000A481830FFF7CABF6068401C6060D7E796
:104F6000E068401CE060D9E76069401C6061DBE7F5
:104F7000E069401CE061DEE7000400489401002085
:104F8000427801780AB9012902D0417000207047A7
:104F90004170012070470000FBF760FEFEF78FFABA
:104FA000FDF72EFFFEF776F8FDF7BAFFFEF73CF8A7
:104FB000FEF704F8FDF738FDFDF776FB0B48FCF72C
:104FC000A7FC0020FDF778FC0020FDF787FD4FF6D9
:104FD000FF70FDF797FD00F0EFF800BFFFF78EFFC1
:104FE00000F048F90120FBF7EBFCF7E72000002078
:104FF00030B52DED048B85B0012214216846FBF7F6
:105000003AF933A16846FFF709FA69461420FDF71B
:10501000C9FC012214216846FBF72DF9304C2068A9
:10502000FBF7E2F941EC100B2EA153EC102B684674
:10503000FFF7F4F969465020FDF7B4FC0122142172
:105040006846FBF718F9A068FBF7CEF941EC100BA6
:1050500027A153EC102B6846FFF7E0F96946822040
:10506000FDF7A0FC2548FFF78BFF9FED259B4FF038
:105070008045B7EE008A80B12068A84209DAFBF7C4
:10508000B3F953EC192BFBF708F9FBF7C0F92060D3
:1050900001E084ED008A00F009F918480830FFF7B4
:1050A0006FFF002810D0A068A84209DAFBF79CF92E
:1050B00053EC192BFBF7F1F8FBF7A9F9A06001E01D
:1050C00084ED028A00F0F2F805B0BDEC048B30BD2F
:1050D000202020202020205052494345000000007D
:1050E000B40100202020202020583A252E316600CF
:1050F0002020202020593A252E3166009C010020D6
:105100009A9999999999B93F10B586B001221421BD
:105110006846FBF7B0F81DA16846FFF77FF96946BE
:105120001420FDF73FFC012214216846FBF7A3F889
:10513000194C1AA16846A288FFF770F969465020F9
:10514000FDF730FC012214216846FBF794F8A28990
:1051500015A16846FFF762F969468220FDF722FC37
:105160001448FFF70DFF20B1A088401CA08000F07C
:105170009DF810480830FFF703FF002804D0A089ED
:10518000401CA08100F092F806B010BD2020202025
:105190002020205245500000B40100202020202073
:1051A00020583A25640000002020202020593A256C
:1051B000640000009C01002010B504212DED028B3D
:1051C0002648FCF79BFEFDF7CFFD254C0020012271
:1051D000E080E08123492448FDF79EF92348FCF74D
:1051E00009FC4220FBF73EFB2A280FD00A20A081B1
:1051F000B7EE000A84ED000AA08084ED020A2A219D
:105200004220FBF750FB00F051F81FE00120FBF7B4
:1052100029FBA0800220FBF725FBA0810320FBF7E0
:1052200021FB00EE100AB2EE048A0420B8EE400A18
:10523000C0EE080AC4ED000AFBF714FB00EE100AEA
:10524000B8EE400AC0EE080AC4ED020A0848BDECF8
:10525000028BBDE81040FCF791BB0000200000204D
:10526000B40100200E00002004010020B80000203E
:105270006C00002010B5FDF7B3FDFFF719FE0A48DA
:10528000007838B1012809D002280BD1BDE81040C0
:10529000FFF73ABFBDE81040FFF73EBDBDE8104044
:1052A000FFF7A6BE10BD00000C00002010B5144C86
:1052B00001202DED028B2179FBF7F5FA217B0220ED
:1052C000FBF7F1FA94ED000AB2EE048A20EE080A28
:1052D000BCEEC00A10EE100AC1B20320FBF7E3FADD
:1052E00094ED020A20EE080ABDEC028BBDE81040E6
:1052F000BCEEC00A10EE100AC1B20420FBF7D3BA0C
:10530000B4010020000000000000000000000000C8
:10531000000000000000000000000000000000008D
:10532000000000000000000000000000000000007D
:1053300000000000000080018001800180018001E8
:105340008001800180018001800180018001800155
:10535000000000008001800100000000000000004B
:105360000000000000000000CC00CC00CC00CC000D
:10537000CC00CC0000000000000000000000000095
:10538000000000000000000000000000000000001D
:10539000000000000000000000000000000000000D
:1053A000600C600C600C30063006FE1FFE1F3006DD
:1053B00038071803FE1FFE1F180318038C018C0109
:1053C0008C01000000008000E003F80F9C0E8C1C94
:1053D0008C188C009800F801E007800E801C8C1857
:1053E0008C189C18B80CF00FE003800080000000BF
:1053F000000000000000000000000E181B0C110C43
:1054000011061106110311039B018E01C038C06CF7
:1054100060446044304430441844186C0C38000038
:10542000000000000000E001F0033807180618062D
:105430003003F001F000F8009C310E33061E061C0C
:10544000061C063FFC73F021000000000000000075
:1054500000000000000000000C000C000C000C001C
:105460000C000C0000000000000000000000000024
:10547000000000000000000000000000000000002C
:10548000000000000000000200038001C000C00016
:10549000600060003000300030003000300030002C
:1054A0003000300060006000C000C00080010003D8
:1054B00000020000000020006000C00080018001A8
:1054C00000030003000600060006000600060006B2
:1054D000000600060003000380018001C000600098
:1054E000200000000000000000000000000000009C
:1054F000C000C000D806F807E001300338070000FC
:10550000000000000000000000000000000000009B
:10551000000000000000000000000000000000008B
:1055200080018001800180018001FC3FFC3F8001FF
:105530008001800180018001000000000000000067
:10554000000000000000000000000000000000005B
:10555000000000000000000000000000000000004B
:1055600000000000000080018001000100018000B7
:10557000000000000000000000000000000000002B
:10558000000000000000000000000000E007E0074D
:10559000000000000000000000000000000000000B
:1055A00000000000000000000000000000000000FB
:1055B00000000000000000000000000000000000EB
:1055C000000000000000C000C0000000000000005B
:1055D000000000000000000C000C000600060006A1
:1055E0000003000300038003800180018001C000EC
:1055F000C000C0006000600000000000000000006B
:10560000000000000000E003F007380E180C0C1832
:105610000C180C180C180C180C180C180C180C186A
:10562000180C380EF007E003000000000000000036
:1056300000000000000000018001C001F00198019D
:10564000880180018001800180018001800180014A
:105650008001800180018001000000000000000046
:10566000000000000000E003F80F180C0C180C18E4
:1056700000180018000C000600038001C000600044
:1056800030001800FC1FFC1F00000000000000009C
:10569000000000000000E001F807180E0C0C0C0CD4
:1056A000000C0006C003C007000C001800180C18FE
:1056B0000C18180CF807E0030000000000000000C0
:1056C000000000000000000C000E000F000F800D15
:1056D000C00C600C600C300C180C0C0CFC3FFC3F38
:1056E000000C000C000C000C00000000000000008A
:1056F000000000000000F80FF80F180018000C0060
:10570000EC03FC071C0E001C0018001800180C18F5
:105710001C0C180EF807E003000000000000000059
:10572000000000000000C007F00F381C1818180017
:105730000C00CC03EC0F3C0E1C1C0C180C180C18A5
:10574000181C380EF007E003000000000000000005
:10575000000000000000FC1FFC1F000C00060006FB
:10576000000380038001C001C000E0006000600011
:105770007000300030003000000000000000000029
:10578000000000000000E003F007380E180C180CB1
:10579000180C3806F007F007180C0C180C180C1829
:1057A0000C18380CF80FE0030000000000000000A7
:1057B000000000000000E003F007380E1C0C0C187D
:1057C0000C180C181C1C381EF81BE0190018000CD3
:1057D000000C1C0EF807F0010000000000000000A3
:1057E00000000000000000000000000000000000B9
:1057F00080018001000000000000000000000000A7
:105800000000000080018001000000000000000096
:105810000000000000000000000000000000000088
:105820008001800100000000000000000000000076
:1058300000000000800180010001000180000000E4
:105840000000000000000000000000000000000058
:10585000000000000010001C800FE003F80018009A
:10586000F800E003800F001C0010000000000000A2
:105870000000000000000000000000000000000028
:1058800000000000F81F000000000000F81F0000EA
:105890000000000000000000000000000000000008
:1058A00000000000000000000000000000000000F8
:1058B0000000000008003800F001C007001F0018B9
:1058C000001FC007F00138000800000000000000C1
:1058D000000000000000E003F80F180C0C180C1872
:1058E0000018000C000600038001C000C000C000CA
:1058F00000000000C000C000000000000000000028
:105900000000000000000000E00718180420C22971
:10591000224A114409440944094409221113E20CA2
:10592000024004201818E0070000000000000000FA
:1059300000000000000080038003C006C006C0060F
:10594000600C600C301830183018F83FF83F1C70AD
:105950000C600C6006C006C00000000000000000E3
:10596000000000000000FC03FC0F0C0C0C180C18CD
:105970000C180C0CFC07FC0F0C180C300C300C3005
:105980000C300C18FC1FFC07000000000000000099
:10599000000000000000C007F01F38381C300C70F9
:1059A0000660060006000600060006000600066007
:1059B0000C701C30F01FE007000000000000000029
:1059C000000000000000FE03FE0F060E0618061879
:1059D000063006300630063006300630063006182F
:1059E0000618060EFE0FFE03000000000000000077
:1059F000000000000000FC3FFC3F0C000C000C000D
:105A00000C000C00FC1FFC1F0C000C000C000C0018
:105A10000C000C00FC3FFC3F0000000000000000F8
:105A2000000000000000F83FF83F180018001800C0
:105A300018001800F81FF81F1800180018001800A8
:105A400018001800180018000000000000000000F6
:105A5000000000000000E00FF83F3C780E6006E018
:105A600007C00300030003FE03FE03C007C006C017
:105A70000EC03CF0F83FE00F000000000000000006
:105A80000000000000000C300C300C300C300C30EA
:105A90000C300C30FC3FFC3F0C300C300C300C3028
:105AA0000C300C300C300C30000000000000000006
:105AB0000000000000008001800180018001800161
:105AC00080018001800180018001800180018001CE
:105AD00080018001800180010000000000000000C2
